{
  "contractName": "todolist",
  "abi": [
    {
      "inputs": [],
      "name": "taskcount",
      "outputs": [
        {
          "internalType": "uint256",
          "name": "",
          "type": "uint256"
        }
      ],
      "stateMutability": "view",
      "type": "function",
      "constant": true
    }
  ],
  "bytecode": "0x608060405260008055348015601357600080fd5b50608c806100226000396000f3fe6080604052348015600f57600080fd5b506004361060285760003560e01c80638bd4808914602d575b600080fd5b60336047565b604051603e9190604d565b60405180910390f35b60005481565b9081526020019056fea26469706673582212209bf9fb8860d6fcd829736111f9d82c5dcc975fe94038a20928507b9a5a8e27fc64736f6c63430008000033",
  "immutableReferences": {},
  "source": "//SPDX-License-Identifier: MIT\npragma solidity ^0.8.0;\n\ncontract todolist {\n   uint public taskcount = 0;\n}",
  "sourcePath": "/Users/akshatgupta/Desktop/01projects/eth-to-do-list/contracts/todolist.sol",
  "compiler": {
    "name": "solc",
    "version": "0.8.0+commit.c7dfd78e.Emscripten.clang"
  },
  "schemaVersion": "3.4.16",
  "updatedAt": "2025-05-13T15:54:06.184Z",
  "networkType": "ethereum",
  "devdoc": {
    "kind": "dev",
    "methods": {},
    "version": 1
  },
  "userdoc": {
    "kind": "user",
    "methods": {},
    "version": 1
  }
}